:100000000C9434000C943E000C943E000C943E0082
:100010000C943E000C943E000C943E000C943E0068
:100020000C943E000C943E000C943E000C943E0058
:100030000C943E000C943E000C943E000C943E0048
:100040000C943E000C943E000C943E000C943E0038
:100050000C943E000C943E000C943E000C943E0028
:100060000C943E000C943E0011241FBECFEFD8E04C
:10007000DEBFCDBF0E945C000C94AB010C9400006D
:10008000CF93C2E0C4BD25E025BD16BC20E030E022
:1000900040E85CE30E94C90020E030E04AE754E415
:1000A0000E94C9000E9436010E94710067BDC5BB55
:1000B000A99BFECFCF91089580E284B985B180627B
:1000C00085B960E070E080E090E40E94400085B176
:1000D0008F7D85B960E070E080E090E40E94400090
:1000E000EDCF0E94A80088F09F5798F0B92F99276C
:1000F000B751B0F0E1F0660F771F881F991F1AF013
:10010000BA95C9F714C0B13091F00E94C200B1E0B5
:1001100008950C94C200672F782F8827B85F39F0B4
:10012000B93FCCF3869577956795B395D9F73EF4AB
:1001300090958095709561957F4F8F4F9F4F089553
:1001400057FD9058440F551F59F05F3F71F0479588
:10015000880F97FB991F61F09F3F79F0879508956D
:10016000121613061406551FF2CF4695F1DF08C08C
:10017000161617061806991FF1CF869571056105A9
:1001800008940895E894BB2766277727CB0197F951
:1001900008950E94DC000C949A010E948C0138F0B2
:1001A0000E94930120F0952311F00C945A010C94B5
:1001B000890111240C94C3000E94A00070F3959F44
:1001C000C1F3950F50E0551F629FF001729FBB274E
:1001D000F00DB11D639FAA27F00DB11DAA1F649FEA
:1001E0006627B00DA11D661F829F2227B00DA11D9D
:1001F000621F739FB00DA11D621F839FA00D611D23
:10020000221F749F3327A00D611D231F849F600D43
:10021000211D822F762F6A2F11249F5750409AF06C
:10022000F1F088234AF0EE0FFF1FBB1F661F771FF8
:10023000881F91505040A9F79E3F510580F00C94C3
:100240005A010C94C3005F3FE4F3983ED4F38695C3
:1002500077956795B795F795E7959F5FC1F7FE2B63
:10026000880F911D9695879597F908950E94A8008B
:10027000E8F09E37E8F09639B8F49E3848F4672FD6
:10028000782F8827985FF9CF86957795679593950E
:100290009539D0F3B62FB1706B0F711D811D20F40D
:1002A00087957795679593950C9460010C947B01E5
:1002B0000C94C30097F99F6780E870E060E00895B0
:1002C000882371F4772321F09850872B762F07C06D
:1002D000662311F499270DC09051862B70E060E0E1
:1002E0002AF09A95660F771F881FDAF7880F969580
:1002F000879597F908959F3F31F0915020F48795A5
:1003000077956795B795880F911D9695879597F97D
:1003100008959FEF80EC089500240A94161617069E
:1003200018060906089500240A94121613061406E6
:1003300005060895092E0394000C11F4882352F049
:10034000BB0F40F4BF2B11F460FF04C06F5F7F4F01
:0A0350008F4F9F4F0895F894FFCFE0
:00000001FF
