S01700004763634170706C69636174696F6E312E737265635B
S11300000C9434000C9449000C9449000C9449005D
S11300100C9449000C9449000C9449000C94490038
S11300200C9449000C9449000C9449000C94490028
S11300300C9449000C9449000C9449000C94490018
S11300400C9449000C9449000C9449000C94490008
S11300500C9449000C9449000C9449000C944900F8
S11300600C9449000C94490011241FBECFEFD8E032
S1130070DEBFCDBF11E0A0E0B1E0E4E1F3E002C0F7
S113008005900D92AC30B107D9F70E94BC000C94D6
S113009088010C940000613011F4289A03C06111A6
S11300A001C028989BB19F709BB99BB1282F207FDA
S11300B0922B9BB9299A2998EFE3FCE93197F1F740
S11300C000C000009BB19F709BB99BB18295807F5B
S11300D0892B8BB9299A29988FE39CE90197F1F729
S11300E000C00000089583E084B980EF8AB98FE3EB
S11300F09CE90197F1F700C0000084B1836084B9E2
S11301008AB1806F8AB960E082E00E944B0060E0AF
S113011088E20E944B0060E08CE00E944B0060E0AB
S113012086E00E944B0060E081E00E944B0060E0AA
S113013080E80E944B000895CF93DF93EC018881FF
S1130140882339F0219661E00E944B008991811146
S1130150FACFDF91CF91089586EF96EA90938500C8
S113016080938400B09BFECF81E086BB089561E05C
S1130170805D0E944B00089583E084B980EF8AB9C2
S11301802FEF81EE94E0215080409040E1F700C0D1
S113019000000E9473002FEF81EE94E02150804014
S11301A09040E1F700C0000060E081E00E944B0055
S11301B082E091E00E949C001092800085E0809390
S11301C0810086EF96EA9093850080938400C2E2D2
S11301D0DBE00F2EF4E8CF2EF3E0DF2EF02D0F2E10
S11301E0FFE0EF2EF12CF02D0F2EF4EC9F2EF02DCE
S11301F00F2EFDECAF2EF02D0E94AC0060E081E0EC
S11302000E944B002196C03624E5D2070CF04FC063
S1130210CE01B6010E946001B62E062FCE01B701B1
S11302200E946001162F9B9C100D112480E091E028
S11302300E949C000A3098F0BA9C012D1124069566
S113024006950695802F0E94B700000F802F880F17
S1130250880F080F8B2D801B0E94B70007C087E012
S113026091E00E949C00802F0E94B70089E091E0F9
S11302700E949C001A3098F01A9D012D11240695B5
S113028006950695802F0E94B700000F802F880FD7
S1130290880F080F812F801B0E94B700ADCF87E025
S11302A091E00E949C00812F0E94B700A5CF80E0BE
S11302B091E00E949C0010E000E0C0E0D0E0CFCFCD
S11302C097FB072E16F4009407D077FD09D00E94FF
S11302D0740107FC05D03EF4909581959F4F0895D5
S11302E0709561957F4F0895AA1BBB1B51E107C010
S11302F0AA1FBB1FA617B70710F0A61BB70B881FB2
S1130300991F5A95A9F780959095BC01CD01089540
S1070310F894FFCF8B
S10F03142020202020200030003A0000AF
S9030000FC
