:0B0A14004C75697A00506564726F0039
:10085500120990D200C201120971D200D201D2024E
:100865001209507BFF7A0A79141208F37F401208A7
:10087500A57BFF7A0A79191208F320A5051209CB81
:1008850080F820A60C30A709D200C2011209AE805B
:10089500E930A6E620A7E3D200D2011209AE80DA3C
:1009CB00C293C297C296C295C294D292C292D2954A
:0709DB00D292C2920209E270
:10097100C293C297C296C295C294D292C292D296A3
:0F098100A2009295A2019294D292C2920209E230
:10095000C297C296C295C294D292C292D297A20076
:100960009296A2019295A2029294D292C292020908
:01097000E2A4
:1009AE00C293C297C296C295D294D292C292A2001C
:0D09BE009297A2019296D292C2920209E293
:10099000C297C296D295C294C293D292C2921209C1
:0E09A000E2D292C292D297D292C2920209E2A1
:1008A5008F08C293D2977D061209F992967D05AFFE
:1008B500081209F992957D04AF081209F99294D2AC
:1008C50092C2927D03AF081209F992977D02AF0893
:1008D5001209F992967D01AF081209F99295E4FD86
:0E08E500AF081209F99294D292C2920209E26F
:100800008F0D7D071209F992977D06AF0D1209F938
:1008100092967D05AF0D1209F992957D04AF0D12E8
:1008200009F99294D293D292C2927D03AF0D12092C
:10083000F992977D02AF0D1209F992967D01AF0DE5
:100840001209F99295E4FDAF0D1209F99294D29232
:05085000C2920209E262
:0608F3008B088A09890A46
:1008F900E4F50BF50CAB08AA09A90A850C82850B4E
:1009090083120923FFFD3395E04D600D12080005A0
:090919000CE50C70E0050B80DC1C
:0109220022B2
:0F09F900AE05A806EF088003A2E713D8FB132270
:1009E200E4FFEFFD3395E0FCC3ED9432EC648094B8
:0609F2008050030F80ECB1
:0109F80022DC
:03000000020A08E9
:0C0A0800787FE4F6D8FD758120020855C7
:10092300BB010CE58229F582E5833AF583E0225089
:1009330006E92582F8E622BBFE06E92582F8E222D3
:0D094300E58229F582E5833AF583E49322ED
:00000001FF
