S00E00005445535445322E737265635F
S11300000C9434000C943E000C943E000C943E007E
S11300100C943E000C943E000C943E000C943E0064
S11300200C943E000C943E000C943E000C943E0054
S11300300C943E000C943E000C943E000C943E0044
S11300400C943E000C943E000C943E000C943E0034
S11300500C943E000C943E000C943E000C943E0024
S11300600C943E000C943E0011241FBECFEFD8E048
S1130070DEBFCDBF0E9490000C94A1000C94000040
S1130080613021F495B1916095B905C0611103C047
S113009095B19E7F95B99BB19F709BB99BB1282F59
S11300A0207F922B9BB995B1926095B995B19D7FB4
S11300B095B99BB19F709BB99BB18295807F892B29
S11300C08BB985B1826085B985B18D7F85B9089575
S11300D084B1836084B98AB1806F8AB960E082E0B8
S11300E00E94400060E088E20E94400060E08CE0F2
S11300F00E94400060E086E00E94400060E081E0F1
S11301000E94400060E080E80E944000089561E0A1
S11301100E944000089561E0805D0E9440000895BF
S113012083E084B980EF8AB90E9468008FE60E9458
S1130130870089E60E94870087E090E00E948B0098
S1090140FFCFF894FFCF8D
S9030000FC
