:100000000C9434000C9449000C9449000C94490061
:100010000C9449000C9449000C9449000C9449003C
:100020000C9449000C9449000C9449000C9449002C
:100030000C9449000C9449000C9449000C9449001C
:100040000C9449000C9449000C9449000C9449000C
:100050000C9449000C9449000C9449000C944900FC
:100060000C9449000C94490011241FBECFEFD8E036
:10007000DEBFCDBF11E0A0E0B1E0E4E8F1E002C0F6
:1000800005900D92A831B107D9F70E94A9000C94F0
:10009000C0000C940000613021F495B1916095B9D5
:1000A00005C0611103C095B19E7F95B99BB19F704A
:1000B0009BB99BB1282F207F922B9BB995B1926061
:1000C00095B995B19D7F95B99BB19F709BB99BB137
:1000D0008295807F892B8BB985B1826085B985B186
:1000E0008D7F85B9089584B1836084B98AB1806FAA
:1000F0008AB960E082E00E944B0060E088E20E94E2
:100100004B0060E08CE00E944B0060E086E00E94C3
:100110004B0060E081E00E944B0060E080E80E94BC
:100120004B0008950F931F93CF93DF938C01C0E092
:10013000D0E004C061E00E944B002196F801EC0F72
:10014000FD1F80818111F6CFDF91CF911F910F911B
:10015000089583E084B980EF8AB90E94730060E05B
:1001600081E00E944B0080E091E00E94920060E0FC
:1001700080EC0E944B008AE091E00E949200FFCF49
:04018000F894FFCF21
:1001840044657520636572746F00446575732065FA
:0801940020706169203A290086
:00000001FF
