S014000054656D706F72697A61646F722E7372656310
S11300000C9434000C9449000C9449000C9449005D
S11300100C9449000C9449000C9449000C94490038
S11300200C9449000C9449000C9449000C94490028
S11300300C9449000C9449000C9449000C94490018
S11300400C9449000C9449000C9449000C94490008
S11300500C9449000C9449000C9449000C944900F8
S11300600C9449000C94490011241FBECFEFD8E032
S1130070DEBFCDBF11E0A0E0B1E0ECE8F4E002C0E7
S113008005900D92A030B107D9F70E9404010C9499
S113009044020C940000CF93C2E0C4BD25E025BD0A
S11300A016BC20E030E040E85CE30E948A0120E0D6
S11300B030E04AE754E40E948A010E94F7010E945A
S11300C00A0167BDC5BBA99BFECFCF910895CF930D
S11300D0C82F613021F485B1816085B905C06111F3
S11300E003C085B18E7F85B98BB18F708BB98BB10D
S11300F09C2F907F892B8BB985B1826085B985B19E
S11301008D7F85B960E070E080E291E40E944B004D
S11301108BB18F708BB98BB1C295C07FC82BCBB913
S113012085B1826085B985B18D7F85B960E070E065
S113013080E291E40E944B00CF91089583E084B95A
S113014080EF8AB960E070E080E291E40E944B00A5
S113015084B1836084B98AB1806F8AB960E070E049
S113016080EA91E40E944B0060E082E00E94670014
S113017060E088E20E94670060E08CE00E94670013
S113018060E086E00E94670060E081E00E94670012
S113019060E080E80E94670060E070E080E291E443
S11301A00E944B00089561E00E94670008958AB19F
S11301B081608AB98AB182608AB98AB184608AB955
S11301C08AB188608AB987B18D7F87B987B18B7FFF
S11301D087B987B1877F87B988B1826088B988B1C8
S11301E0846088B988B1886088B9089584B1877FAC
S11301F084B984B18F7E84B908950E949E000E94C0
S1130200D7000E94F60008950E94FD0081E60E9436
S1130210D300FFCF0E94690188F09F5798F0B92F4F
S11302209927B751B0F0E1F0660F771F881F991F27
S11302301AF0BA95C9F714C0B13091F00E94830145
S1130240B1E008950C948301672F782F8827B85F55
S113025039F0B93FCCF3869577956795B395D9F77F
S11302603EF490958095709561957F4F8F4F9F4F89
S1130270089597F99F6780E870E060E008959FEF24
S113028080EC089500240A94161617061806090629
S1130290089500240A9412161306140605060895F8
S11302A0092E0394000C11F4882352F0BB0F40F480
S11302B0BF2B11F460FF04C06F5F7F4F8F4F9F4FC0
S11302C0089557FD9058440F551F59F05F3F71F042
S11302D04795880F97FB991F61F09F3F79F08795A9
S11302E00895121613061406551FF2CF4695F1DF32
S11302F008C0161617061806991FF1CF86957105C2
S1130300610508940895E894BB2766277727CB01F5
S113031097F908950E949D010C9450010E94420196
S113032038F00E94490120F0952311F00C94390112
S11303300C943F0111240C9484010E94610170F318
S1130340959FC1F3950F50E0551F629FF001729F76
S1130350BB27F00DB11D639FAA27F00DB11DAA1F85
S1130360649F6627B00DA11D661F829F2227B00DD2
S1130370A11D621F739FB00DA11D621F839FA00D5D
S1130380611D221F749F3327A00D611D231F849FAD
S1130390600D211D822F762F6A2F11249F57504004
S11303A09AF0F1F088234AF0EE0FFF1FBB1F661F7F
S11303B0771F881F91505040A9F79E3F510580F048
S11303C00C9439010C9484015F3FE4F3983ED4F318
S11303D0869577956795B795F795E7959F5FC1F7EC
S11303E0FE2B880F911D9695879597F908950E9485
S11303F06901E8F09E37E8F09639B8F49E3848F47D
S1130400672F782F8827985FF9CF8695779567951A
S113041093959539D0F3B62FB1706B0F711D811D73
S113042020F487957795679593950C941B020C940B
S113043036020C948401882371F4772321F09850B8
S1130440872B762F07C0662311F499270DC090518E
S1130450862B70E060E02AF09A95660F771F881F5C
S1130460DAF7880F9695879597F908959F3F31F0AD
S1130470915020F4879577956795B795880F911DCE
S10F04809695879597F90895F894FFCF9E
S9030000FC
