S020000054656E7461746976612066756E63616F207465636C61646F2E73726563BC
S11300000C9434000C9451000C9451000C94510045
S11300100C9451000C9451000C9451000C94510018
S11300200C9451000C9451000C9451000C94510008
S11300300C9451000C9451000C9451000C945100F8
S11300400C9451000C9451000C9451000C945100E8
S11300500C9451000C9451000C9451000C945100D8
S11300600C9451000C94510011241FBECFEFD8E022
S1130070DEBFCDBF11E0A0E0B1E0ECE3F7E002C0E9
S113008005900D92A831B107D9F721E0A8E1B1E0BC
S113009001C01D92AA31B207E1F70E9447020C94F5
S11300A09C030C940000CF93C2E0C4BD25E025BDA1
S11300B016BC20E030E040E85CE30E94BA0220E095
S11300C030E04AE754E40E94BA020E9427030E94E7
S11300D0620267BDC5BBA99BFECFCF910895CF93A4
S11300E0C82F613021F485B1816085B905C06111E3
S11300F003C085B18E7F85B98BB18F708BB98BB1FD
S11301009C2F907F892B8BB985B1826085B985B18D
S11301108D7F85B960E070E080E291E40E94530035
S11301208BB18F708BB98BB1C295C07FC82BCBB903
S113013085B1826085B985B18D7F85B960E070E055
S113014080E291E40E945300CF91089584B18360CA
S113015084B98AB1806F8AB960E070E080EA91E482
S11301600E94530060E082E00E946F0060E088E239
S11301700E946F0060E08CE00E946F0060E086E007
S11301800E946F0060E081E00E946F0060E080E800
S11301900E946F00089561E00E946F000895CF935C
S11301A0C82F60E081E10E946F0061E08C2F0E9403
S11301B06F00CF9108958AB181608AB98AB1826053
S11301C08AB98AB184608AB98AB188608AB987B1E8
S11301D08D7F87B987B18B7F87B987B1877F87B9CF
S11301E088B1826088B988B1846088B988B1886030
S11301F088B908951F93CF93DF93CDB7DEB7E69701
S11302000FB6F894DEBF0FBECDBF8CE0E1E0F1E0A5
S1130210DE01119601900D928A95E1F7FE013D965B
S113022080E2DF011D928A95E9F782E38D8781E4FC
S11302308E8782E48F8783E4888B83E3898B84E4CD
S11302408A8B85E48B8B86E48C8B84E38D8B87E4AB
S11302508E8B88E48F8B89E4888F85E3898F8AE489
S11302608A8F8BE48B8F8CE48C8F86E38D8F8DE467
S11302708E8F8EE48F8F8FE488A388E389A384E52F
S11302808AA385E58BA386E58CA38AE0EDE0F1E003
S1130290DE019D9601900D928A95E1F740E050E0D1
S11302A010E25DC02BB181E090E0042E02C0880F03
S11302B0991F0A94E2F7809582238BB920E030E0FD
S11302C010C04217530759F06BB181E090E0022E41
S11302D002C0880F991F0A94E2F7862B8BB92F5F0F
S11302E03F4F243031056CF321E030E033C086B158
S11302F061E070E0022E02C0660F771F0A94E2F7F5
S113030090E086239723022E02C0959587950A9440
S1130310E2F7892BE9F4FA01EE0FFF1FE40FF51F52
S113032081E090E08C0F9D1FE80FF91FC901019730
S1130330E80FF91F108186B190E086239723022EDF
S113034002C0959587950A94E2F7892BA1F305C01D
S11303502F5F3F4F2430310554F24F5F5F4F4430DD
S113036051050CF49FCF60E070E080E291E40E94BC
S11303705300103209F480C080ED810F823020F0E8
S11303801A3211F0133221F4812F0E94CB0074C071
S113039080910001181367C0209118013091190150
S11303A02F5F3F4F3093190120931801153391F0BB
S11303B028F41333C1F0143351F006C0183381F01C
S11303C0193389F0163349F080E090E00EC082E0E2
S11303D090E00BC083E090E008C084E090E005C0AA
S11303E085E090E002C081E090E0173311F019330A
S11303F0E9F42530310521F4109219011092180105
S11304002091180130911901AC01440F551F440F7C
S1130410551F840F951FA1E0B0E0AC0FBD1F8A0FDC
S11304209B1FFC01E20FF31F14A519C024303105F2
S113043021F41092190110921801209118013091A1
S11304401901880F991F880F991F41E050E04C0F44
S11304505D1F840F951FFC01E20FF31F1485812F8C
S11304600E94CF0009C01092190110921801109334
S11304700001812F0E94CB00812FE6960FB6F894DD
S1130480DEBF0FBECDBFDF91CF911F91089583E0F2
S113049084B980EF8AB960E070E080E291E40E9460
S11304A053000E94A60060E070E080E291E40E94A4
S11304B053000E94DB0060E080EC0E946F000E9409
S11304C0FA00FDCF0E94990288F09F5798F0B92F47
S11304D09927B751B0F0E1F0660F771F881F991F75
S11304E01AF0BA95C9F714C0B13091F00E94B30262
S11304F0B1E008950C94B302672F782F8827B85F72
S113050039F0B93FCCF3869577956795B395D9F7CC
S11305103EF490958095709561957F4F8F4F9F4FD6
S1130520089557FD9058440F551F59F05F3F71F0DF
S11305304795880F97FB991F61F09F3F79F0879546
S11305400895121613061406551FF2CF4695F1DFCF
S113055008C0161617061806991FF1CF869571055F
S1130560610508940895E894BB2766277727CB0193
S113057097F908950E94CD020C948B030E947D0389
S113058038F00E94840320F0952311F00C944B035F
S11305900C947A0311240C94B4020E94910270F317
S11305A0959FC1F3950F50E0551F629FF001729F14
S11305B0BB27F00DB11D639FAA27F00DB11DAA1F23
S11305C0649F6627B00DA11D661F829F2227B00D70
S11305D0A11D621F739FB00DA11D621F839FA00DFB
S11305E0611D221F749F3327A00D611D231F849F4B
S11305F0600D211D822F762F6A2F11249F575040A2
S11306009AF0F1F088234AF0EE0FFF1FBB1F661F1C
S1130610771F881F91505040A9F79E3F510580F0E5
S11306200C944B030C94B4025F3FE4F3983ED4F370
S1130630869577956795B795F795E7959F5FC1F789
S1130640FE2B880F911D9695879597F908950E9422
S11306509902E8F09E37E8F09639B8F49E3848F4E9
S1130660672F782F8827985FF9CF869577956795B8
S113067093959539D0F3B62FB1706B0F711D811D11
S113068020F487957795679593950C9451030C9472
S11306906C030C94B40297F99F6780E870E060E003
S11306A00895882371F4772321F09850872B762FAF
S11306B007C0662311F499270DC09051862B70E072
S11306C060E02AF09A95660F771F881FDAF7880F83
S11306D09695879597F908959F3F31F0915020F4AE
S11306E0879577956795B795880F911D969587950A
S11306F097F908959FEF80EC089500240A94161644
S1130700170618060906089500240A9412161306FB
S1130710140605060895092E0394000C11F4882389
S113072052F0BB0F40F4BF2B11F460FF04C06F5FA5
S10F07307F4F8F4F9F4F0895F894FFCF28
S113073C2F3132333435363738392A302337505148
S10B074C5253395758595A0061
S9030000FC
