S01100005465737465206C65642E73726563B9
S11300000C9434000C943E000C943E000C943E007E
S11300100C943E000C943E000C943E000C943E0064
S11300200C943E000C943E000C943E000C943E0054
S11300300C943E000C943E000C943E000C943E0044
S11300400C943E000C943E000C943E000C943E0034
S11300500C943E000C943E000C943E000C943E0024
S11300600C943E000C943E0011241FBECFEFD8E048
S1130070DEBFCDBF0E9445000C9459000C940000D3
S113008082E085BBA99BFECF089580E284B982E01B
S113009084BD84E085BD16BC88E687BD85B18062D9
S11300A085B90E94400085B18F7D85B90E944000CA
S10900B0F5CFF894FFCF28
S9030000FC
