:100000000C9434000C9449000C9449000C94490061
:100010000C9449000C9449000C9449000C9449003C
:100020000C9449000C9449000C9449000C9449002C
:100030000C9449000C9449000C9449000C9449001C
:100040000C9449000C9449000C9449000C9449000C
:100050000C9449000C9449000C9449000C944900FC
:100060000C9449000C94490011241FBECFEFD8E036
:10007000DEBFCDBF11E0A0E0B1E0ECE6F8E002C0E9
:1000800005900D92AA31B107D9F70E94F8010C949E
:1000900034040C940000CF93C2E0C4BD25E025BD1C
:1000A00016BC20E030E040E85CE30E942E0320E034
:1000B00030E04AE754E40E942E030E949B030E9412
:1000C000A90267BDC5BBA99BFECFCF910895CF9272
:1000D000DF92EF92FF920F931F93CF93DF93C0E0D5
:1000E000D0E0C12CD12C760110E000E043C060E0EC
:1000F00070E088E492E40E944B00219683B18695DB
:10010000869586958130C9F483B1869586958695C6
:10011000081302C01F5F01C010E0173069F420E02F
:1001200030E040E05FE3C701B6010E9436026B0198
:100130007C01C0E0D0E001C0082F83B182958F70B0
:100140008130C1F483B182958F70081302C01F5FA4
:1001500001C010E0173069F420E030E040E85FE3D0
:10016000C701B6010E9436026B017C01C0E0D0E0FD
:1001700001C0082F173021F0CF30D10509F0B7CFDB
:10018000C701B601DF91CF911F910F91FF90EF90C2
:10019000DF90CF900895613021F495B1916095B9C9
:1001A00005C0611103C095B19E7F95B99BB19F7049
:1001B0009BB99BB1282F207F922B9BB995B1926060
:1001C00095B995B19D7F95B99BB19F709BB99BB136
:1001D0008295807F892B8BB985B1826085B985B185
:1001E0008D7F85B9089584B1836084B98AB1806FA9
:1001F0008AB960E082E00E94CB0060E088E20E9461
:10020000CB0060E08CE00E94CB0060E086E00E94C2
:10021000CB0060E081E00E94CB0060E080E80E94BB
:10022000CB00089583E084B980EF8AB960E070E084
:1002300088EC92E40E944B000E94F30060E070E0C2
:1002400088EC92E40E944B0008950F931F93CF9384
:10025000DF938C01C0E0D0E004C061E00E94CB00DD
:100260002196F801EC0FFD1F80818111F6CFDF91FF
:10027000CF911F910F910895CF938A3091058CF003
:100280006AE070E00E940C04962FC82F61E080E3C2
:10029000890F0E94CB0061E080E38C0F0E94CB00AD
:1002A00004C061E0805D0E94CB00CF910895CF92A1
:1002B000DF92EF92FF92CF93DF93C0E0D0E0C12CAA
:1002C000D12C760121960E9467009B01AC01C701E9
:1002D000B6010E9436026B017C0183B182958F705A
:1002E000813039F083B1869586958695813031F4D9
:1002F00003C0C0E0D0E002C0C0E0D0E0C530D1050E
:10030000B9F560E070E081E090E00E94CB0080E011
:1003100091E00E942501C701B6010E94A202CB0113
:100320000E943C0184E091E00E94250120E030E041
:1003300040E251E4C701B6010E942E030E94A202CE
:1003400061707078772334F4615071096E6F7F6F3C
:100350006F5F7F4FCB01880F991F880F991F860F02
:10036000971F0E943C0180E090E00E943C012EC05B
:1003700020E030E040E950E4C701B6010E942903C3
:100380008823ECF060E070E081E090E00E94CB0018
:1003900080E091E00E94250186E091E00E94250125
:1003A00060E070E080EC90E00E94CB0080E091E0A3
:1003B0000E9425018BE091E00E94250107C060E0CA
:1003C00070E088EC92E40E944B007CCF20E030E0AB
:1003D00048EC52E4C701B6010E942E030E94A2021B
:1003E000CB01DF91CF91FF90EF90DF90CF900895F8
:1003F0000E94120160E070E088EC92E40E944B00E1
:100400000E94F30060E070E088EC92E40E944B00F0
:1004100060E081E00E94CB000E9457010E943C01F5
:1004200060E070E08AEF93E40E944B0060E070E0CF
:100430008AEF93E40E944B0060E070E08AEF93E45F
:100440000E944B0060E070E08AEF93E40E944B0052
:1004500060E070E08AEF93E40E944B0060E070E09F
:100460008AEF93E40E944B00D3CF5058BB27AA27B2
:100470000E944D020C94EF020E94E10238F00E94AB
:10048000E80220F039F49F3F19F426F40C94DE02C0
:100490000EF4E095E7FB0C94D802E92F0E940003CC
:1004A00058F3BA17620773078407950720F079F4A9
:1004B000A6F50C9422030EF4E0950B2EBA2FA02D76
:1004C0000B01B90190010C01CA01A0011124FF2701
:1004D000591B99F0593F50F4503E68F11A16F040FC
:1004E000A22F232F342F4427585FF3CF46953795FB
:1004F0002795A795F0405395C9F77EF41F16BA0BC0
:10050000620B730B840BBAF09150A1F0FF0FBB1F6D
:10051000661F771F881FC2F70EC0BA0F621F731FB6
:10052000841F48F4879577956795B795F7959E3F13
:1005300008F0B0CF9395880F08F09927EE0F9795A4
:10054000879508950E94A9026894B1110C94230321
:1005500008950E94080388F09F5798F0B92F9927B3
:10056000B751B0F0E1F0660F771F881F991F1AF09E
:10057000BA95C9F714C0B13091F00E942203B1E0DE
:1005800008950C942203672F782F8827B85F39F0DD
:10059000B93FCCF3869577956795B395D9F73EF437
:1005A00090958095709561957F4F8F4F9F4F0895DF
:1005B00097F99F6780E870E060E008959FEF80EC16
:1005C000089500240A9416161706180609060895B9
:1005D00000240A9412161306140605060895092E1F
:1005E0000394000C11F4882352F0BB0F40F4BF2B8E
:1005F00011F460FF04C06F5F7F4F8F4F9F4F0895CE
:1006000057FD9058440F551F59F05F3F71F04795C3
:10061000880F97FB991F61F09F3F79F087950895A8
:10062000121613061406551FF2CF4695F1DF08C0C7
:10063000161617061806991FF1CF869571056105E4
:1006400008940895E894BB2766277727CB0197F98C
:1006500008950E94BF0308F48FEF08950E9441039C
:100660000C94EF020E94E10238F00E94E80220F0B0
:10067000952311F00C94D8020C94DE0211240C94F2
:1006800023030E94000370F3959FC1F3950F50E080
:10069000551F629FF001729FBB27F00DB11D639F34
:1006A000AA27F00DB11DAA1F649F6627B00DA11DDA
:1006B000661F829F2227B00DA11D621F739FB00D80
:1006C000A11D621F839FA00D611D221F749F3327F0
:1006D000A00D611D231F849F600D211D822F762F89
:1006E0006A2F11249F5750409AF0F1F088234AF066
:1006F000EE0FFF1FBB1F661F771F881F91505040D2
:10070000A9F79E3F510580F00C94D8020C94230366
:100710005F3FE4F3983ED4F3869577956795B79558
:10072000F795E7959F5FC1F7FE2B880F911D969572
:10073000879597F908950E940803E8F09E37E8F03E
:100740009639B8F49E3848F4672F782F8827985F39
:10075000F9CF86957795679593959539D0F3B62F10
:10076000B1706B0F711D811D20F48795779567958A
:1007700093950C94E3030C94FE030C942303990FBC
:100780000008550FAA0BE0E8FEEF16161706E8075B
:10079000F907C0F012161306E407F50798F0621B7C
:1007A000730B840B950B39F40A2661F0232B242B51
:1007B000252B21F408950A2609F4A140A6958FEF70
:1007C000811D811D0895882371F4772321F09850AD
:1007D000872B762F07C0662311F499270DC09051FF
:1007E000862B70E060E02AF09A95660F771F881FCD
:1007F000DAF7880F9695879597F908959F3F31F01E
:10080000915020F4879577956795B795880F911D3E
:100810009695879597F9089597FB072E16F40094FF
:1008200007D077FD09D00E94200407FC05D03EF4D4
:10083000909581959F4F0895709561957F4F08958C
:10084000AA1BBB1B51E107C0AA1FBB1FA617B707F6
:1008500010F0A61BB70B881F991F5A95A9F7809512
:0C0860009095BC01CD010895F894FFCFE5
:10086C00202020002C00342C35300056414C4F52A7
:0A087C00204D4158494D4F21000066
:00000001FF
