S00F00005465636C61646F2E7372656359
S11300000C9434000C943E000C943E000C943E007E
S11300100C943E000C943E000C943E000C943E0064
S11300200C943E000C943E000C943E000C943E0054
S11300300C943E000C943E000C943E000C943E0044
S11300400C943E000C943E000C943E000C943E0034
S11300500C943E000C943E000C943E000C943E0024
S11300600C943E000C943E0011241FBECFEFD8E048
S1130070DEBFCDBF0E94F6000C9401010C94000079
S1130080613021F495B1916095B905C0611103C047
S113009095B19E7F95B99BB19F709BB99BB1282F59
S11300A0207F922B9BB995B1926095B995B19D7FB4
S11300B095B99BB19F709BB99BB18295807F892B29
S11300C08BB985B1826085B985B18D7F85B9089575
S11300D084B1836084B98AB1806F8AB960E082E0B8
S11300E00E94400060E088E20E94400060E08CE0F2
S11300F00E94400060E086E00E94400060E081E0F1
S11301000E94400060E080E80E944000089561E0A1
S11301100E944000089561E0805D0E9440000895BF
S11301208AB181608AB98AB182608AB98AB18460ED
S11301308AB98AB188608AB987B18D7F87B987B156
S11301408B7F87B987B1877F87B988B1826088B987
S113015088B1846088B988B1886088B90895CF93DC
S1130160DF93C0E0D0E03CC02BB181E090E00C2EE6
S113017002C0880F991F0A94E2F7809582238BB9F5
S113018020E030E010C0C217D30759F04BB181E032
S113019090E0022E02C0880F991F0A94E2F7842B84
S11301A08BB92F5F3F4F243031056CF3319906C072
S11301B0CE010E948B008AE20E948700329907C018
S11301C0CE010E948B0080E090E00E948B00339966
S11301D006C0CE010E948B0083E20E948700219614
S11301E0C430D1050CF2DF91CF91089583E084B936
S11301F080EF8AB90E9468000E9490000E94AF00BC
S1090200FDCFF894FFCFCE
S9030000FC
