:100000000C9434000C9449000C9449000C94490061
:100010000C9449000C9449000C9449000C9449003C
:100020000C9449000C9449000C9449000C9449002C
:100030000C9449000C9449000C9449000C9449001C
:100040000C9449000C9449000C9449000C9449000C
:100050000C9449000C9449000C9449000C944900FC
:100060000C9449000C94490011241FBECFEFD8E036
:10007000DEBFCDBF11E0A0E0B1E0E8E0F2E002C0F9
:1000800005900D92AA32B107D9F70E94D7000C94BF
:1000900002010C940000613021F495B1916095B992
:1000A00005C0611103C095B19E7F95B99BB19F704A
:1000B0009BB99BB1282F207F922B9BB995B1926061
:1000C00095B995B19D7F95B99BB19F709BB99BB137
:1000D0008295807F892B8BB985B1826085B985B186
:1000E0008D7F85B9089584B1836084B98AB1806FAA
:1000F0008AB960E082E00E944B0060E088E20E94E2
:100100004B0060E08CE00E944B0060E086E00E94C3
:100110004B0060E081E00E944B0060E080E80E94BC
:100120004B0008950F931F93CF93DF938C01C0E092
:10013000D0E004C061E00E944B002196F801EC0F72
:10014000FD1F80818111F6CFDF91CF911F910F911B
:100150000895AC0120E030E01BC02330310534F4B9
:10016000FA01E20FF31F80818134C0F023303105A2
:100170006CF0FA01E20FF31F908180ED890F8A3055
:1001800028F0913470F02430310571F42F5F3F4F27
:100190002730310511F781E090E0089580E090E08C
:1001A000089580E090E0089580E090E00895CF9376
:1001B000DF93CDB7DEB728970FB6F894DEBF0FBE3A
:1001C000CDBF88E0E1E2F1E0DE01119601900D92F1
:1001D0008A95E1F783E084B980EF8AB90E947300C1
:1001E000CE0101960E94A9008C01019721F480E0C4
:1001F00091E00E949200012B21F480E191E00E94A5
:080200009200FFCFF894FFCF3C
:10020800506C6163612076616C696461203A2900F1
:10021800506C61636120696E76616C6964613A282B
:0A022800004142433144333400002A
:00000001FF
