:100000000C9434000C9449000C9449000C94490061
:100010000C9449000C9449000C9449000C9449003C
:100020000C9449000C9449000C9449000C9449002C
:100030000C9449000C9449000C9449000C9449001C
:100040000C9449000C9449000C9449000C9449000C
:100050000C9449000C9449000C9449000C944900FC
:100060000C9449000C94490011241FBECFEFD8E036
:10007000DEBFCDBF11E0A0E0B1E0EEEDF2E002C0E6
:1000800005900D92AC34B107D9F70E943A010C9457
:100090006D010C940000613021F495B1916095B927
:1000A00005C0611103C095B19E7F95B99BB19F704A
:1000B0009BB99BB1282F207F922B9BB995B1926061
:1000C00095B995B19D7F95B99BB19F709BB99BB137
:1000D0008295807F892B8BB985B1826085B985B186
:1000E0008D7F85B9089584B1836084B98AB1806FAA
:1000F0008AB960E082E00E944B0060E088E20E94E2
:100100004B0060E08CE00E944B0060E086E00E94C3
:100110004B0060E081E00E944B0060E080E80E94BC
:100120004B0008950F931F93CF93DF938C01C0E092
:10013000D0E004C061E00E944B002196F801EC0F72
:10014000FD1F80818111F6CFDF91CF911F910F911B
:100150000895DC0120E030E00CC0FD01E20FF31F48
:100160004081FB01E20FF31F9081491308C02F5F0C
:100170003F4F273031058CF381E090E0089580E017
:1001800090E00895EF92FF920F931F93CF93DF9328
:10019000CDB7DEB727970FB6F894DEBF0FBECDBF41
:1001A00020E030E01CC0233031053CF4FC01E20FBC
:1001B000F31F4081413408F445C0233031056CF011
:1001C000FC01E20FF31F408150ED540F5A3028F02C
:1001D0004134D8F124303105D9F52F5F3F4F273016
:1001E000310509F77C0100E010E026C0F801EE0FB0
:1001F000FF1FEE0FFF1FEE0FFF1FE01BF10BE95C6F
:10020000FE4FE80FF91F2081E1E0F0E0EC0FFD1F49
:10021000E80FF91F2083019602C080E090E087304C
:10022000910524F3BE016F5F7F4FC7010E94A900B3
:10023000892B89F40F5F1F4F0330110574F381E0A0
:1002400090E00BC080E090E008C080E090E005C046
:1002500080E090E002C082E090E027960FB6F8942C
:10026000DEBF0FBECDBFDF91CF911F910F91FF90E9
:10027000EF900895CF93DF93CDB7DEB728970FB6F1
:10028000F894DEBF0FBECDBF88E0EFE2F1E0DE0103
:10029000119601900D928A95E1F783E084B980EF81
:1002A0008AB90E947300CE0101960E94C2008C019F
:1002B000019721F480E091E00E9492000115110560
:1002C00021F48DE091E00E9492000230110521F4AA
:0E02D0008CE191E00E949200FFCFF894FFCFE6
:1002DE00506C6163612076616C69646100506C6181
:1002EE00636120696E76616C69646100506C616354
:1002FE006120707265666572656E6369616C00502F
:10030E004E45303130320049444F3130323049445D
:0C031E005330303839504E453031303209
:00000001FF
