:100000000C9434000C9449000C9449000C94490061
:100010000C9449000C9449000C9449000C9449003C
:100020000C9449000C9449000C9449000C9449002C
:100030000C9449000C9449000C9449000C9449001C
:100040000C9449000C9449000C9449000C9449000C
:100050000C9449000C9449000C9449000C944900FC
:100060000C9449000C94490011241FBECFEFD8E036
:10007000DEBFCDBF11E0A0E0B1E0E2E6F2E002C0F9
:1000800005900D92AC30B107D9F70E9424010C9471
:100090002F010C940000613021F495B1916095B965
:1000A00005C0611103C095B19E7F95B99BB19F704A
:1000B0009BB99BB1282F207F922B9BB995B1926061
:1000C00095B995B19D7F95B99BB19F709BB99BB137
:1000D0008295807F892B8BB985B1826085B985B186
:1000E0008D7F85B9089584B1836084B98AB1806FAA
:1000F0008AB960E082E00E944B0060E088E20E94E2
:100100004B0060E08CE00E944B0060E086E00E94C3
:100110004B0060E081E00E944B0060E080E80E94BC
:100120004B00089561E00E944B0008958AB1816000
:100130008AB98AB182608AB98AB184608AB98AB17F
:1001400088608AB987B18D7F87B987B18B7F87B97E
:1001500087B1877F87B988B1826088B988B18460A8
:1001600088B988B1886088B90895EF92FF920F939B
:100170001F93CF93DF93C0E0D0E05BC02BB181E051
:1001800090E00C2E02C0880F991F0A94E2F7809528
:1001900082238BB920E030E010C0C217D30759F09A
:1001A0004BB181E090E0022E02C0880F991F0A94A3
:1001B000E2F7842B8BB92F5F3F4F243031056CF36E
:1001C00001E010E032C086B121E030E07901002E7C
:1001D00002C0EE0CFF1C0A94E2F790E08E219F21F2
:1001E000002E02C0959587950A94E2F7892BD9F4E1
:1001F000FE01EE0FFF1FEC0FFD1FE050FF4FC80187
:100200000197E80FF91F80810E94920086B190E06B
:100210008E219F21002E02C0959587950A94E2F7C2
:10022000892BA1F305C00F5F1F4F043011055CF24D
:100230002196C430D1050CF4A1CFDF91CF911F914D
:100240000F91FF90EF90089583E084B980EF8AB911
:100250000E9473000E9496000E94B500FDCFF894A2
:02026000FFCFCE
:0C0262003132333435363738392A302336
:00000001FF
