S01800005465636C61646F5F6465626F756E63652E73726563AC
S11300000C9434000C943E000C943E000C943E007E
S11300100C943E000C943E000C943E000C943E0064
S11300200C943E000C943E000C943E000C943E0054
S11300300C943E000C943E000C943E000C943E0044
S11300400C943E000C943E000C943E000C943E0034
S11300500C943E000C943E000C943E000C943E0024
S11300600C943E000C943E0011241FBECFEFD8E048
S1130070DEBFCDBF0E943A010C947F020C940000B5
S1130080613021F495B1916095B905C0611103C047
S113009095B19E7F95B99BB19F709BB99BB1282F59
S11300A0207F922B9BB995B1926095B995B19D7FB4
S11300B095B99BB19F709BB99BB18295807F892B29
S11300C08BB985B1826085B985B18D7F85B9089575
S11300D084B1836084B98AB1806F8AB960E082E0B8
S11300E00E94400060E088E20E94400060E08CE0F2
S11300F00E94400060E086E00E94400060E081E0F1
S11301000E94400060E080E80E944000089561E0A1
S1130110805D0E94400008958AB181608AB98AB1E5
S113012082608AB98AB184608AB98AB188608AB9DE
S113013087B18D7F87B987B18B7F87B987B1877F77
S113014087B988B1826088B988B1846088B988B178
S1130150886088B90895CF93C2E0C4BD25E025BD69
S113016016BC20E030E040E85CE30E949D0120E002
S113017030E04AE754E40E949D010E940A020E9472
S1130180450167BDC5BBA99BFECFCF910895EF92F2
S1130190FF920F931F93CF93DF93C0E0D0E05FC033
S11301A02BB181E090E00C2E02C0880F991F0A94B5
S11301B0E2F7809582238BB920E030E010C0C217AB
S11301C0D30759F04BB181E090E0022E02C0880FB2
S11301D0991F0A94E2F7842B8BB92F5F3F4F243089
S11301E031056CF360E070E080E291E40E94AB00C2
S11301F001E010E030C086B121E030E07901002E4A
S113020002C0EE0CFF1C0A94E2F790E08E219F21BD
S1130210002E02C0959587950A94E2F7892BC9F4BC
S1130220CE010E948700C8010E94870086B190E039
S11302308E219F21002E02C0959587950A94E2F79E
S1130240892BA1F360E070E080E291E40E94AB00AE
S113025005C00F5F1F4F043011056CF22196C430A6
S1130260D1050CF49DCFDF91CF911F910F91FF9099
S1130270EF90089583E084B980EF8AB90E94680002
S11302800E948C000E94C700FDCF0E947C0188F070
S11302909F5798F0B92F9927B751B0F0E1F0660F46
S11302A0771F881F991F1AF0BA95C9F714C0B13087
S11302B091F00E949601B1E008950C949601672F85
S11302C0782F8827B85F39F0B93FCCF386957795B6
S11302D06795B395D9F73EF490958095709561959F
S11302E07F4F8F4F9F4F089557FD9058440F551FD0
S11302F059F05F3F71F04795880F97FB991F61F0A4
S11303009F3F79F087950895121613061406551F1A
S1130310F2CF4695F1DF08C0161617061806991F86
S1130320F1CF86957105610508940895E894BB277B
S113033066277727CB0197F908950E94B0010C94A2
S11303406E020E94600238F00E94670220F095233A
S113035011F00C942E020C945D0211240C9497015C
S11303600E94740170F3959FC1F3950F50E0551FDF
S1130370629FF001729FBB27F00DB11D639FAA27F6
S1130380F00DB11DAA1F649F6627B00DA11D661F45
S1130390829F2227B00DA11D621F739FB00DA11D66
S11303A0621F839FA00D611D221F749F3327A00D20
S11303B0611D231F849F600D211D822F762F6A2FBC
S11303C011249F5750409AF0F1F088234AF0EE0F21
S11303D0FF1FBB1F661F771F881F91505040A9F74E
S11303E09E3F510580F00C942E020C9497015F3FC0
S11303F0E4F3983ED4F3869577956795B795F7958A
S1130400E7959F5FC1F7FE2B880F911D9695879501
S113041097F908950E947C01E8F09E37E8F0963938
S1130420B8F49E3848F4672F782F8827985FF9CF5F
S113043086957795679593959539D0F3B62FB170D6
S11304406B0F711D811D20F48795779567959395A2
S11304500C9434020C944F020C94970197F99F6703
S113046080E870E060E00895882371F4772321F038
S11304709850872B762F07C0662311F499270DC057
S11304809051862B70E060E02AF09A95660F771FF2
S1130490881FDAF7880F9695879597F908959F3FF7
S11304A031F0915020F4879577956795B795880F2B
S11304B0911D9695879597F908959FEF80EC08957F
S11304C000240A941616170618060906089500242F
S11304D00A9412161306140605060895092E0394A9
S11304E0000C11F4882352F0BB0F40F4BF2B11F41D
S11304F060FF04C06F5F7F4F8F4F9F4F0895F89444
S1050500FFCF27
S9030000FC
