:100000000C9434000C943E000C943E000C943E0082
:100010000C943E000C943E000C943E000C943E0068
:100020000C943E000C943E000C943E000C943E0058
:100030000C943E000C943E000C943E000C943E0048
:100040000C943E000C943E000C943E000C943E0038
:100050000C943E000C943E000C943E000C943E0028
:100060000C943E000C943E0011241FBECFEFD8E04C
:10007000DEBFCDBF0E948D000C9492000C94000056
:1000800084B1877F84B984B18F7E84B9089582E07A
:1000900084BD94E095BD16BC9FE397BD85BBA99B2D
:1000A000FECF0895CF93DF93C0E0D0E024C00E943C
:1000B000470083B1869586958695813061F483B13A
:1000C000869586958695D81302C0CF5F01C0C0E0A3
:1000D000C730B9F0D82F83B182958F70813059F431
:1000E00083B182958F70D81302C0CF5F01C0C0E08A
:1000F000C73061F0D82FC730D1F660E070E0CB0197
:1001000009C060E070E080E09FE304C060E070E060
:1001100080E89FE3DF91CF9108950E9440000E9404
:080120005200FDCFF894FFCF5F
:00000001FF
